{
  "contractName": "Certification",
  "abi": [
    {
      "anonymous": false,
      "inputs": [
        {
          "indexed": false,
          "internalType": "string",
          "name": "certificate_id",
          "type": "string"
        }
      ],
      "name": "certificateGenerated",
      "type": "event"
    },
    {
      "inputs": [
        {
          "internalType": "string",
          "name": "",
          "type": "string"
        }
      ],
      "name": "certificates",
      "outputs": [
        {
          "internalType": "string",
          "name": "uid",
          "type": "string"
        },
        {
          "internalType": "string",
          "name": "candidate_name",
          "type": "string"
        },
        {
          "internalType": "string",
          "name": "course_name",
          "type": "string"
        },
        {
          "internalType": "string",
          "name": "org_name",
          "type": "string"
        },
        {
          "internalType": "string",
          "name": "cgpa_total",
          "type": "string"
        },
        {
          "internalType": "string",
          "name": "ipfs_hash",
          "type": "string"
        }
      ],
      "stateMutability": "view",
      "type": "function",
      "constant": true
    },
    {
      "inputs": [
        {
          "internalType": "string",
          "name": "_certificate_id",
          "type": "string"
        },
        {
          "internalType": "string",
          "name": "_uid",
          "type": "string"
        },
        {
          "internalType": "string",
          "name": "_candidate_name",
          "type": "string"
        },
        {
          "internalType": "string",
          "name": "_course_name",
          "type": "string"
        },
        {
          "internalType": "string",
          "name": "_org_name",
          "type": "string"
        },
        {
          "internalType": "string",
          "name": "_cgpa_total",
          "type": "string"
        },
        {
          "internalType": "string",
          "name": "_ipfs_hash",
          "type": "string"
        }
      ],
      "name": "generateCertificate",
      "outputs": [],
      "stateMutability": "nonpayable",
      "type": "function"
    },
    {
      "inputs": [
        {
          "internalType": "string",
          "name": "_certificate_id",
          "type": "string"
        }
      ],
      "name": "getCertificate",
      "outputs": [
        {
          "internalType": "string",
          "name": "_uid",
          "type": "string"
        },
        {
          "internalType": "string",
          "name": "_candidate_name",
          "type": "string"
        },
        {
          "internalType": "string",
          "name": "_course_name",
          "type": "string"
        },
        {
          "internalType": "string",
          "name": "_org_name",
          "type": "string"
        },
        {
          "internalType": "string",
          "name": "_cgpa_total",
          "type": "string"
        },
        {
          "internalType": "string",
          "name": "_ipfs_hash",
          "type": "string"
        }
      ],
      "stateMutability": "view",
      "type": "function",
      "constant": true
    },
    {
      "inputs": [
        {
          "internalType": "string",
          "name": "_certificate_id",
          "type": "string"
        }
      ],
      "name": "isVerified",
      "outputs": [
        {
          "internalType": "bool",
          "name": "",
          "type": "bool"
        }
      ],
      "stateMutability": "view",
      "type": "function",
      "constant": true
    }
  ],
  "bytecode": "0x608060405234801561001057600080fd5b506111dc806100206000396000f3fe608060405234801561001057600080fd5b506004361061004c5760003560e01c8063234c76d5146100515780634e435daa146100815780638f2b91ea1461009d578063ed0f2e75146100d2575b600080fd5b61006b60048036038101906100669190610cb5565b610107565b6040516100789190610d19565b60405180910390f35b61009b60048036038101906100969190610d34565b610141565b005b6100b760048036038101906100b29190610cb5565b6102f2565b6040516100c996959493929190610f22565b60405180910390f35b6100ec60048036038101906100e79190610cb5565b610674565b6040516100fe96959493929190610f22565b60405180910390f35b60008060008360405161011a9190610fe9565b908152602001604051809103902060050180546101369061102f565b905014159050919050565b600080886040516101529190610fe9565b9081526020016040518091039020600501805461016e9061102f565b9050146101b0576040517f08c379a00000000000000000000000000000000000000000000000000000000081526004016101a7906110d2565b60405180910390fd5b60006040518060c00160405280888152602001878152602001868152602001858152602001848152602001838152509050806000896040516101f29190610fe9565b9081526020016040518091039020600082015181600001908051906020019061021c929190610ab8565b506020820151816001019080519060200190610239929190610ab8565b506040820151816002019080519060200190610256929190610ab8565b506060820151816003019080519060200190610273929190610ab8565b506080820151816004019080519060200190610290929190610ab8565b5060a08201518160050190805190602001906102ad929190610ab8565b509050507f267fae70dc2912ede5096795f49d41fac472461a02e4f8703eceee0e785bbd1d886040516102e091906110f2565b60405180910390a15050505050505050565b60008180516020810182018051848252602083016020850120818352809550505050505060009150905080600001805461032b9061102f565b80601f01602080910402602001604051908101604052809291908181526020018280546103579061102f565b80156103a45780601f10610379576101008083540402835291602001916103a4565b820191906000526020600020905b81548152906001019060200180831161038757829003601f168201915b5050505050908060010180546103b99061102f565b80601f01602080910402602001604051908101604052809291908181526020018280546103e59061102f565b80156104325780601f1061040757610100808354040283529160200191610432565b820191906000526020600020905b81548152906001019060200180831161041557829003601f168201915b5050505050908060020180546104479061102f565b80601f01602080910402602001604051908101604052809291908181526020018280546104739061102f565b80156104c05780601f10610495576101008083540402835291602001916104c0565b820191906000526020600020905b8154815290600101906020018083116104a357829003601f168201915b5050505050908060030180546104d59061102f565b80601f01602080910402602001604051908101604052809291908181526020018280546105019061102f565b801561054e5780601f106105235761010080835404028352916020019161054e565b820191906000526020600020905b81548152906001019060200180831161053157829003601f168201915b5050505050908060040180546105639061102f565b80601f016020809104026020016040519081016040528092919081815260200182805461058f9061102f565b80156105dc5780601f106105b1576101008083540402835291602001916105dc565b820191906000526020600020905b8154815290600101906020018083116105bf57829003601f168201915b5050505050908060050180546105f19061102f565b80601f016020809104026020016040519081016040528092919081815260200182805461061d9061102f565b801561066a5780601f1061063f5761010080835404028352916020019161066a565b820191906000526020600020905b81548152906001019060200180831161064d57829003601f168201915b5050505050905086565b6060806060806060806000808860405161068e9190610fe9565b90815260200160405180910390206040518060c00160405290816000820180546106b79061102f565b80601f01602080910402602001604051908101604052809291908181526020018280546106e39061102f565b80156107305780601f1061070557610100808354040283529160200191610730565b820191906000526020600020905b81548152906001019060200180831161071357829003601f168201915b505050505081526020016001820180546107499061102f565b80601f01602080910402602001604051908101604052809291908181526020018280546107759061102f565b80156107c25780601f10610797576101008083540402835291602001916107c2565b820191906000526020600020905b8154815290600101906020018083116107a557829003601f168201915b505050505081526020016002820180546107db9061102f565b80601f01602080910402602001604051908101604052809291908181526020018280546108079061102f565b80156108545780601f1061082957610100808354040283529160200191610854565b820191906000526020600020905b81548152906001019060200180831161083757829003601f168201915b5050505050815260200160038201805461086d9061102f565b80601f01602080910402602001604051908101604052809291908181526020018280546108999061102f565b80156108e65780601f106108bb576101008083540402835291602001916108e6565b820191906000526020600020905b8154815290600101906020018083116108c957829003601f168201915b505050505081526020016004820180546108ff9061102f565b80601f016020809104026020016040519081016040528092919081815260200182805461092b9061102f565b80156109785780601f1061094d57610100808354040283529160200191610978565b820191906000526020600020905b81548152906001019060200180831161095b57829003601f168201915b505050505081526020016005820180546109919061102f565b80601f01602080910402602001604051908101604052809291908181526020018280546109bd9061102f565b8015610a0a5780601f106109df57610100808354040283529160200191610a0a565b820191906000526020600020905b8154815290600101906020018083116109ed57829003601f168201915b505050505081525050905060008089604051610a269190610fe9565b90815260200160405180910390206005018054610a429061102f565b905003610a84576040517f08c379a0000000000000000000000000000000000000000000000000000000008152600401610a7b90611186565b60405180910390fd5b806000015181602001518260400151836060015184608001518560a001519650965096509650965096505091939550919395565b828054610ac49061102f565b90600052602060002090601f016020900481019282610ae65760008555610b2d565b82601f10610aff57805160ff1916838001178555610b2d565b82800160010185558215610b2d579182015b82811115610b2c578251825591602001919060010190610b11565b5b509050610b3a9190610b3e565b5090565b5b80821115610b57576000816000905550600101610b3f565b5090565b6000604051905090565b600080fd5b600080fd5b600080fd5b600080fd5b6000601f19601f8301169050919050565b7f4e487b7100000000000000000000000000000000000000000000000000000000600052604160045260246000fd5b610bc282610b79565b810181811067ffffffffffffffff82111715610be157610be0610b8a565b5b80604052505050565b6000610bf4610b5b565b9050610c008282610bb9565b919050565b600067ffffffffffffffff821115610c2057610c1f610b8a565b5b610c2982610b79565b9050602081019050919050565b82818337600083830152505050565b6000610c58610c5384610c05565b610bea565b905082815260208101848484011115610c7457610c73610b74565b5b610c7f848285610c36565b509392505050565b600082601f830112610c9c57610c9b610b6f565b5b8135610cac848260208601610c45565b91505092915050565b600060208284031215610ccb57610cca610b65565b5b600082013567ffffffffffffffff811115610ce957610ce8610b6a565b5b610cf584828501610c87565b91505092915050565b60008115159050919050565b610d1381610cfe565b82525050565b6000602082019050610d2e6000830184610d0a565b92915050565b600080600080600080600060e0888a031215610d5357610d52610b65565b5b600088013567ffffffffffffffff811115610d7157610d70610b6a565b5b610d7d8a828b01610c87565b975050602088013567ffffffffffffffff811115610d9e57610d9d610b6a565b5b610daa8a828b01610c87565b965050604088013567ffffffffffffffff811115610dcb57610dca610b6a565b5b610dd78a828b01610c87565b955050606088013567ffffffffffffffff811115610df857610df7610b6a565b5b610e048a828b01610c87565b945050608088013567ffffffffffffffff811115610e2557610e24610b6a565b5b610e318a828b01610c87565b93505060a088013567ffffffffffffffff811115610e5257610e51610b6a565b5b610e5e8a828b01610c87565b92505060c088013567ffffffffffffffff811115610e7f57610e7e610b6a565b5b610e8b8a828b01610c87565b91505092959891949750929550565b600081519050919050565b600082825260208201905092915050565b60005b83811015610ed4578082015181840152602081019050610eb9565b83811115610ee3576000848401525b50505050565b6000610ef482610e9a565b610efe8185610ea5565b9350610f0e818560208601610eb6565b610f1781610b79565b840191505092915050565b600060c0820190508181036000830152610f3c8189610ee9565b90508181036020830152610f508188610ee9565b90508181036040830152610f648187610ee9565b90508181036060830152610f788186610ee9565b90508181036080830152610f8c8185610ee9565b905081810360a0830152610fa08184610ee9565b9050979650505050505050565b600081905092915050565b6000610fc382610e9a565b610fcd8185610fad565b9350610fdd818560208601610eb6565b80840191505092915050565b6000610ff58284610fb8565b915081905092915050565b7f4e487b7100000000000000000000000000000000000000000000000000000000600052602260045260246000fd5b6000600282049050600182168061104757607f821691505b60208210810361105a57611059611000565b5b50919050565b7f43657274696669636174652077697468207468697320494420616c726561647960008201527f2065786973747300000000000000000000000000000000000000000000000000602082015250565b60006110bc602783610ea5565b91506110c782611060565b604082019050919050565b600060208201905081810360008301526110eb816110af565b9050919050565b6000602082019050818103600083015261110c8184610ee9565b905092915050565b7f43657274696669636174652077697468207468697320494420646f6573206e6f60008201527f7420657869737400000000000000000000000000000000000000000000000000602082015250565b6000611170602783610ea5565b915061117b82611114565b604082019050919050565b6000602082019050818103600083015261119f81611163565b905091905056fea26469706673582212203437bb9b6e93433f71305367738a6e2ed9ade3882ea6651f91f2660aa732bdad64736f6c634300080d0033",
  "immutableReferences": {},
  "source": "// SPDX-License-Identifier: MIT\r\npragma solidity ^0.8.13;\r\n\r\ncontract Certification {\r\n    struct Certificate {\r\n        string uid;\r\n        string candidate_name;\r\n        string course_name;\r\n        string org_name;\r\n        string cgpa_total;\r\n        string ipfs_hash;\r\n    }\r\n\r\n    mapping(string => Certificate) public certificates;\r\n    event certificateGenerated(string certificate_id);\r\n\r\n    function generateCertificate(\r\n        string memory _certificate_id,\r\n        string memory _uid,\r\n        string memory _candidate_name,\r\n        string memory _course_name,\r\n        string memory _org_name,\r\n        string memory _cgpa_total,\r\n        string memory _ipfs_hash\r\n    ) public {\r\n        // Check if certificate with the given ID already exists\r\n        require(\r\n            bytes(certificates[_certificate_id].ipfs_hash).length == 0,\r\n            \"Certificate with this ID already exists\"\r\n        );\r\n\r\n        // Create the certificate\r\n        Certificate memory cert = Certificate({\r\n            uid: _uid,\r\n            candidate_name: _candidate_name,\r\n            course_name: _course_name,\r\n            org_name: _org_name,\r\n            cgpa_total: _cgpa_total,\r\n            ipfs_hash: _ipfs_hash\r\n        });\r\n\r\n        // Store the certificate in the mapping\r\n        certificates[_certificate_id] = cert;\r\n\r\n        // Emit an event\r\n        emit certificateGenerated(_certificate_id);\r\n    }\r\n\r\n    function getCertificate(\r\n        string memory _certificate_id\r\n    )\r\n        public\r\n        view\r\n        returns (\r\n            string memory _uid,\r\n            string memory _candidate_name,\r\n            string memory _course_name,\r\n            string memory _org_name,\r\n            string memory _cgpa_total,\r\n            string memory _ipfs_hash\r\n        )\r\n    {\r\n        Certificate memory cert = certificates[_certificate_id];\r\n\r\n        // Check if the certificate with the given ID exists\r\n        require(\r\n            bytes(certificates[_certificate_id].ipfs_hash).length != 0,\r\n            \"Certificate with this ID does not exist\"\r\n        );\r\n\r\n        // Return the values from the certificate\r\n        return (\r\n            cert.uid,\r\n            cert.candidate_name,\r\n            cert.course_name,\r\n            cert.org_name,\r\n            cert.cgpa_total,\r\n            cert.ipfs_hash\r\n        );\r\n    }\r\n\r\n    function isVerified(\r\n        string memory _certificate_id\r\n    ) public view returns (bool) {\r\n        return bytes(certificates[_certificate_id].ipfs_hash).length != 0;\r\n    }\r\n}",
  "sourcePath": "D:\\project\\finalprojectrepo\\contracts\\Certification.sol",
  "compiler": {
    "name": "solc",
    "version": "0.8.13+commit.abaa5c0e.Emscripten.clang"
  },
  "schemaVersion": "3.4.16",
  "updatedAt": "2024-05-20T18:10:39.824Z",
  "networkType": "ethereum",
  "devdoc": {
    "kind": "dev",
    "methods": {},
    "version": 1
  },
  "userdoc": {
    "kind": "user",
    "methods": {},
    "version": 1
  }
}